:100000000C943E000C9466000C9466000C94660000
:100010000C9466000C9466000C9466000C946600C8
:100020000C9466000C9466000C9466000C946600B8
:100030000C9466000C9466000C9466000C946600A8
:100040000C9410010C9466000C9466000C946600ED
:100050000C9466000C9466000C9466000C94660088
:100060000C9466000C9466001112131415160A0BFA
:100070000C0D0E0F0001020304050B0111241FBE1D
:10008000CFEFD8E0DEBFCDBF11E0A0E0B1E0E4EA01
:10009000FBE002C005900D92A037B107D9F721E02F
:1000A000A0E7B1E001C01D92A739B207E1F710E067
:1000B000CCE7D0E004C02297FE010E940104CA37B9
:1000C000D107C9F70E94B3000C94D0050C9400002E
:1000D000E0ECF0E0908195FFFDCF8093C60008959D
:1000E000CF93C82F8A3019F48DE00E9470008C2FB6
:1000F0000E94680080E090E0CF910895E0ECF0E08D
:1001000020812223ECF72091C600FC012083089572
:100110000F931F93CF93DF931F92CDB7DEB78C0160
:10012000CE0101960E947E00B80189810E94700074
:10013000898190E00F90DF91CF911F910F910895E9
:1001400068E870E080E790E00E940E0490938201DE
:100150008093810190938E0180938D019093900103
:1001600080938F0108951092C50083E38093C400AB
:1001700086E08093C20088E18093C1000E94A000C5
:100180008DE191E00E9459048AE391E00E945904B4
:1001900084B5836084BD85B5836085BDEEE6F0E0FF
:1001A000808181608083789480E791E00E94A6033B
:1001B00061E080E791E00E944C03809180018823F8
:1001C00071F06CE071E080E791E00E946A0246E025
:1001D00051E061E080E791E00E9485020DC066E099
:1001E00071E080E791E00E946A024CE051E061E03A
:1001F00080E791E00E94850280E791E00E94F7028B
:1002000060E080E791E00E94840161E080E791E096
:100210000E948401F5CF80E791E00E943E0208959C
:100220001F920F920FB60F9211242F938F939F93CB
:1002300080918B0190918C01019690938C01809319
:100240008B0180918B0190918C018A3F91050CF478
:1002500043C010928C0110928B0180918901909182
:100260008A01019690938A0180938901809185018A
:1002700090918601019690938601809385018091EB
:10028000890190918A01893E93402CF110928A0154
:10029000109289018091830190918401019690933D
:1002A0008401809383018091870190918801019658
:1002B00090938801809387018091870190918801B4
:1002C000883E934044F0109288011092870195B1C6
:1002D00081E0892785B900009F918F912F910F9020
:1002E0000FBE0F901F901895662341F0289A87EC57
:1002F00090E00197F1F700C00000089528989DE173
:100300009A95F1F700000895662341F05F9A87EC13
:1003100090E00197F1F700C0000008955F989DE11B
:100320009A95F1F7000008951F93CF93DF93EC01A6
:10033000162F84B18C6284B924988CB580658CBDED
:1003400060E0CE010E9474011F711EBD0DB407FE56
:10035000FDCF8EB58FEF8EBD0DB407FEFDCF1EB560
:1003600061E0CE010E947401812FDF91CF911F9136
:100370000895EF92FF920F931F93CF93DF93EC01B9
:10038000062FE42EF52E122F84B18C6284B92498A6
:100390008CB580658CBD60E0CE010E9474010F7148
:1003A00000620EBD0DB407FEFDCF0EB59FEF910F9D
:1003B000112351F0EE2DFF2D21912EBD0DB407FE1E
:1003C000FDCF2EB59150C0F761E0CE010E947401BF
:1003D000802FDF91CF911F910F91FF90EF900895A3
:1003E0000F931F93CF93DF93EC01162F042F84B14B
:1003F0008C6284B924988CB580658CBD60E0CE0198
:100400000E9474011F7110621EBD0DB407FEFDCF66
:100410001EB50EBD0DB407FEFDCF8EB561E0CE0159
:100420000E947401812FDF91CF911F910F91089548
:100430001F93CF93DF93EC01162F84B18C6284B9A4
:1004400024988CB580658CBD60E0CE010E9474015B
:100450001EBD0DB407FEFDCF1EB561E0CE010E94AA
:100460007401812FDF91CF911F91089562EE0E9458
:100470001802089561EE0E9418020895FC0112828C
:1004800080E28383148285E0828715820895462F57
:10049000603808F04FE765E00E94F0010895CF93BF
:1004A000DF93EC0160E00E94940181FD10C060E0E8
:1004B000CE010E949401482F426060E0CE010E946C
:1004C000F0018FE097E20197F1F700C00000DF91A3
:1004D000CF9108950F931F93CF93DF93EC018B017E
:1004E0002A85AB016AE00E94B9012A85A80160E172
:1004F000CE010E94B9014B8161E1CE010E94F00161
:10050000DF91CF911F910F910895FF920F931F9349
:10051000CF93DF93EC01F62E8A01611107C04A8563
:1005200050E0B80105960E94050407C066E06F150B
:1005300008F436C071E07F1558F0EF2DF0E0E25975
:10054000FF4F64912A85A801CE010E94B90108C01D
:10055000EF2DF0E0E259FF4F649121E00E94B901D4
:100560000F2D10E0F801E859FF4F64914B81CE0147
:100570000E94F00162E0CE010E949401F801EC5863
:10058000FF4F449121E030E0B90102C0660F771FB0
:100590004A95E2F7AB01482B62E0CE010E94F001E0
:1005A000DF91CF911F910F91FF9008951F93CF93EB
:1005B000DF93EC01162F62E00E949401E12FF0E03E
:1005C000EC58FF4FE49121E030E0A90102C0440F54
:1005D000551FEA95E2F7FA01E0954E2F482362E0B5
:1005E000CE010E94F001DF91CF911F910895CF932A
:1005F000DF93EC010E944F0260E0CE010E94940163
:10060000482F416060E0CE010E94F00140E767E0C2
:10061000CE010E94F00161E0CE010E9484018D8133
:10062000882349F02A85AE014B5F5F4F6AE0CE0117
:100630000E94B90104C060E0CE010E94D6026DE1C3
:10064000CE010E94940181FF03C0CE010E943A02B4
:10065000DF91CF910895CF93DF93EC0184B18C6249
:1006600084B924988CB580658CBD60E0CE010E9471
:10067000740180E58EBD0DB407FEFDCF8EB583E716
:100680008EBD0DB407FEFDCF8EB561E0CE010E9498
:100690007401DF91CF9108951F93CF93DF93EC0105
:1006A000162F66E00E949401887F143020F4412FB9
:1006B000440F4F5F01C047E0482B66E0CE010E9427
:1006C000F001DF91CF911F910895FF920F931F9337
:1006D000CF93DF93EC01162F66E00E949401877D93
:1006E000F82E123059F48062F82E0BE910E020E069
:1006F00030E00B871C872D873E8715C0113049F0ED
:1007000005E510E020E030E00B871C872D873E8751
:100710000AC08860F82E01E410E020E030E00B878A
:100720001C872D873E874F2D66E0CE010E94F00189
:1007300066E0CE010E94940191E0F81290E0892FCA
:10074000DF91CF911F910F91FF900895CF93DF9389
:10075000EC01579A209A84B18C6284B924988CB5A4
:1007600080658CBD61E0CE010E9474018FE097E24C
:100770000197F1F700C000004CE060E0CE010E945C
:10078000F0014FE564E0CE010E94F00162E0CE018D
:100790000E946503882311F081E08A8360E0CE0126
:1007A0000E946503CE010E942B0340E06DE1CE0163
:1007B0000E94F00140E06CE1CE010E94F00140E7B0
:1007C00067E0CE010E94F0016CE4CE010E94470276
:1007D000CE010E943602CE010E943A02CE010E9452
:1007E0004F0260E0CE010E949401482F4E7F60E0EE
:1007F000CE010E94F00180E0DF91CF910895EE0FCD
:10080000FF1F0590F491E02D0994FB01DC0102C06B
:1008100001900D9241505040D8F708950F931F93C7
:10082000CF93DF93EC018B01009731F461157105D3
:1008300019F480E090E038C06EE070E081E090E074
:100840000E948604FC010097A1F380E883830115D0
:10085000110571F01387028781E8838380918D01F0
:1008600090918E01892B21F4F0938E01E0938D01FC
:100870002097C9F0D187C08783818260838380916C
:100880008F0190919001892B71F4F0939001E09386
:100890008F018091910190919201892B21F4F09325
:1008A0009201E0939101CF01DF91CF911F910F91C0
:1008B00008950F931F93CF93DF93E0918F01F091F1
:1008C0009001238121FF1BC0EC0100E010E0899121
:1008D00060918F0170919001DB011896ED91FC9170
:1008E0001997882331F00995892B89F30FEF1FEFB2
:1008F000EECF8AE00995892B11F4C80102C08FEF71
:100900009FEFDF91CF911F910F9108950F931F9348
:10091000CF93DF93869F8001879F100D969F100DC8
:100920001124C8010E94A204EC01009729F0A8013B
:1009300060E070E00E94C905CE01DF91CF911F9168
:100940000F910895CF93DF938230910510F482E0E8
:1009500090E0E0919501F091960120E030E0A0E078
:10096000B0E0309739F14081518148175907B8F00C
:100970004817590771F482819381109729F01396D3
:100980009C938E9312972CC090939601809395011F
:1009900027C02115310531F04217530718F0A9017E
:1009A000DB0101C0EF019A01BD01DF010280F3818B
:1009B000E02DD7CF21153105F9F0281B390B243054
:1009C000310580F48A819B816115710521F0FB015D
:1009D0009383828304C09093960180939501FE01D6
:1009E000329644C0FE01E20FF31F8193919322508F
:1009F0003109398328833AC02091930130919401C1
:100A0000232B41F420910201309103013093940192
:100A100020939301209100013091010121153105AE
:100A200041F42DB73EB74091040150910501241BBC
:100A3000350BE0919301F0919401E217F307A0F4D4
:100A40002E1B3F0B2817390778F0AC014E5F5F4F24
:100A50002417350748F04E0F5F1F509394014093C1
:100A600093018193919302C0E0E0F0E0CF01DF9128
:100A7000CF910895CF93DF93009709F487C0FC01CD
:100A8000329713821282C0919501D09196012097DE
:100A900081F420813181280F391F80919301909139
:100AA00094018217930779F5F0939401E0939301F1
:100AB0006DC0DE0120E030E0AE17BF0750F41296A3
:100AC0004D915C9113979D014115510509F1DA0192
:100AD000F3CFB383A28340815181840F951F8A177E
:100AE0009B0771F48D919C911197840F951F02962D
:100AF0009183808312968D919C9113979383828327
:100B00002115310529F4F0939601E09395013EC03B
:100B1000D9011396FC93EE9312974D915D91A40F1A
:100B2000B51FEA17FB0779F480819181840F951F27
:100B30000296D90111969C938E938281938113968C
:100B40009C938E931297E0E0F0E08A819B8100975E
:100B500019F0FE01EC01F9CFCE010296288139810E
:100B6000820F931F20919301309194012817390728
:100B700069F4309729F4109296011092950102C001
:100B800013821282D0939401C0939301DF91CF918D
:100B90000895DC0101C06D9341505040E0F7089585
:040BA000F894FFCFF7
:100BA400000097012000314E6F646500324E6F647F
:100BB400650025635B324A0025635B480052463278
:100BC400342F6578616D706C65732F476574746933
:100BD4006E6753746172746564002A2A2A20505225
:100BE4004553532027542720746F20626567696E2C
:100BF400207472616E736D697474696E6720746FAA
:100C040020746865206F74686572206E6F64650077
:00000001FF
