:100000000C9434000C9446000C9446000C9446006A
:100010000C9446000C9446000C9446000C94460048
:100020000C9446000C9446000C9446000C94460038
:100030000C9446000C9446000C9469000C94460005
:100040000C9446000C9446000C9446000C94460018
:100050000C9446000C9446000C9446000C94460008
:100060000C9446000C94460011241FBECFEFD8E03C
:10007000DEBFCDBF21E0A0E0B1E001C01D92A43001
:10008000B207E1F70E9448000C94D8010C940000DC
:10009000CF93DF93CDB7DEB760970FB6F894DEBF8E
:1000A0000FBECDBFCE0101960E940101CE01019687
:1000B0000E948401FFCF84B18C6284B924988CB5EE
:1000C00080658CBD08958EBD0DB407FEFDCF8EB545
:1000D00008951F920F920FB60F9211248F939F9342
:1000E0008091020190910301019690930301809306
:1000F000020180910201909103018436910574F010
:10010000109203011092020180910001909101016F
:100110000196909301018093000100009F918F91BF
:100120000F900FBE0F901F901895662341F02A9AEA
:1001300087EC90E00197F1F700C0000008952A983D
:100140009DE19A95F1F7000008951F93CF93DF93F7
:10015000EC01162F0E945B0060E0CE010E9495002A
:10016000812F8F710E9463008FEF0E946300182F10
:1001700061E0CE010E949500812FDF91CF911F9108
:1001800008950F931F93CF93DF93EC01162F042F45
:100190000E945B0060E0CE010E949500812F8F716C
:1001A00080620E946300182F802F0E94630061E02C
:1001B000CE010E949500812FDF91CF911F910F9169
:1001C00008951F93CF93DF93EC01162F0E945B00DD
:1001D00060E0CE010E949500812F0E946300182FDD
:1001E00061E0CE010E949500812FDF91CF911F9198
:1001F000089562EE0E94E100089561EE0E94E10020
:100200000895FC01128280E28383148285E0828754
:1002100015820895462F603808F04FE765E00E9488
:10022000C1000895CF93DF93EC0160E00E94A50028
:1002300081FD10C060E0CE010E94A500482F426001
:1002400060E0CE010E94C1008FE097E20197F1F7D4
:1002500000C00000DF91CF910895CF93DF93EC01B0
:100260000E945B0060E0CE010E94950080E50E9444
:10027000630083E70E94630061E0CE010E94950065
:10028000DF91CF910895FF920F931F93CF93DF9348
:10029000EC01162F66E00E94A500877DF82E123033
:1002A00059F48062F82E0BE910E020E030E00B8773
:1002B0001C872D873E8715C0113049F005E510E0F9
:1002C00020E030E00B871C872D873E870AC08860BE
:1002D000F82E01E410E020E030E00B871C872D872A
:1002E0003E874F2D66E0CE010E94C10066E0CE0140
:1002F0000E94A50091E0F81290E0892FDF91CF9144
:100300001F910F91FF900895CF93DF93EC015F9AB7
:10031000289A0E945B0061E0CE010E9495008FE068
:1003200097E20197F1F700C000004CE060E0CE01D9
:100330000E94C1004FE564E0CE010E94C10062E06E
:10034000CE010E944301882311F081E08A8360E09E
:10035000CE010E944301CE010E942D0140E06DE1DB
:10036000CE010E94C10040E06CE1CE010E94C100BC
:1003700040E767E0CE010E94C1006CE4CE010E941C
:100380000A01CE010E94F900CE010E94FD00CE01BB
:100390000E94120160E0CE010E94A500482F4E7F0E
:1003A00060E0CE010E94C10080E0DF91CF9108950E
:0403B000F894FFCFEF
:00000001FF
