:100000000C9434000C9451000C9451000C94510049
:100010000C9451000C9451000C9451000C9451001C
:100020000C9451000C9451000C9451000C9451000C
:100030000C9451000C9451000C94AC000C945100A1
:100040000C9451000C9451000C9451000C945100EC
:100050000C9451000C9451000C9451000C945100DC
:100060000C9451000C94510011241FBECFEFD8E026
:10007000DEBFCDBF11E0A0E0B1E0EEE2F5E002C0EE
:1000800005900D92A630B107D9F721E0A6E0B1E0C6
:1000900001C01D92AA31B207E1F70E949E000C94A4
:1000A00095020C940000E0ECF0E0908195FFFDCF0C
:1000B0008093C6000895CF93C82F8A3019F48DE03D
:1000C0000E945B008C2F0E94530080E090E0CF9153
:1000D0000895E0ECF0E020812223ECF72091C600A7
:1000E000FC01208308950F931F93CF93DF931F92FA
:1000F000CDB7DEB78C01CE0101960E946900B80130
:1001000089810E945B00898190E00F90DF91CF91FF
:100110001F910F91089563E770E08BE590E00E94D6
:100120000001909307018093060190931101809341
:100130001001909313018093120108951092C5004D
:1001400083E38093C40086E08093C20088E18093BB
:10015000C1000E948B00FFCF1F920F920FB60F922B
:1001600011242F933F938F939F9380910E01909131
:100170000F01019690930F0180930E0180910E0163
:1001800090910F018436910594F110920F01109215
:100190000E0180910A0190910B01019690930B0141
:1001A00080930A0180910C0190910D01019690932A
:1001B0000D0180930C0180910C0190910D019C0127
:1001C0002F5F3F4F30930D0120930C01893E9340E8
:1001D0006CF010920D0110920C0180910801909129
:1001E00009010196909309018093080100009F91F5
:1001F0008F913F912F910F900FBE0F901F901895E8
:100200000F931F93CF93DF93EC018B01009731F491
:100210006115710519F480E090E038C06EE070E07F
:1002200081E090E00E944B01FC010097A1F380E87F
:1002300083830115110571F01387028781E8838399
:100240008091100190911101892B21F4F0931101FB
:10025000E09310012097C9F0D187C0878381826025
:1002600083838091120190911301892B71F4F09393
:100270001301E09312018091140190911501892BD3
:1002800021F4F0931501E0931401CF01DF91CF9198
:100290001F910F9108950F931F93CF93DF93869F24
:1002A0008001879F100D969F100D1124C8010E9498
:1002B0006701EC01009729F0A80160E070E00E945E
:1002C0008E02CE01DF91CF911F910F910895CF93B0
:1002D000DF938230910510F482E090E0E091180104
:1002E000F091190120E030E0A0E0B0E0309739F162
:1002F0004081518148175907B8F04817590771F4E0
:1003000082819381109729F013969C938E93129774
:100310002CC0909319018093180127C02115310535
:1003200031F04217530718F0A901DB0101C0EF01BA
:100330009A01BD01DF010280F381E02DD7CF2115A5
:100340003105F9F0281B390B2430310580F48A81FE
:100350009B816115710521F0FB019383828304C0A9
:100360009093190180931801FE01329644C0FE015A
:10037000E20FF31F8193919322503109398328832F
:100380003AC02091160130911701232B41F420919E
:10039000020130910301309317012093160120913F
:1003A0000001309101012115310541F42DB73EB70F
:1003B0004091040150910501241B350BE091160179
:1003C000F0911701E217F307A0F42E1B3F0B28173B
:1003D000390778F0AC014E5F5F4F2417350748F0BE
:1003E0004E0F5F1F50931701409316018193919315
:1003F00002C0E0E0F0E0CF01DF91CF910895CF930C
:10040000DF93009709F487C0FC01329713821282B0
:10041000C0911801D0911901209781F42081318178
:10042000280F391F809116019091170182179307A9
:1004300079F5F0931701E09316016DC0DE0120E01D
:1004400030E0AE17BF0750F412964D915C911397B0
:100450009D014115510509F1DA01F3CFB383A28360
:1004600040815181840F951F8A179B0771F48D91EC
:100470009C911197840F951F029691838083129609
:100480008D919C911397938382832115310529F4D3
:10049000F0931901E09318013EC0D9011396FC9323
:1004A000EE9312974D915D91A40FB51FEA17FB07CC
:1004B00079F480819181840F951F0296D90111965C
:1004C0009C938E938281938113969C938E93129723
:1004D000E0E0F0E08A819B81009719F0FE01EC01D9
:1004E000F9CFCE01029628813981820F931F209186
:1004F0001601309117012817390769F4309729F44C
:10050000109219011092180102C013821282D09326
:100510001701C0931601DF91CF910895DC0101C04E
:0E0520006D9341505040E0F70895F894FFCFDE
:06052E0000001A0120008C
:00000001FF
