S01100006E726632346C3031702E737265632A
S11300000C943E000C9466000C9466000C946600FC
S11300100C9466000C9466000C9466000C946600C4
S11300200C9466000C9466000C9466000C946600B4
S11300300C9466000C9466000C9466000C946600A4
S11300400C9422010C9466000C9466000C946600D7
S11300500C9466000C9466000C9466000C94660084
S11300600C9466000C9466001112131415160A0BF6
S11300700C0D0E0F0001020304051D0111241FBE07
S1130080CFEFD8E0DEBFCDBF11E0A0E0B1E0EAEDF4
S1130090FBE002C005900D92A037B107D9F721E02B
S11300A0A0E7B1E001C01D92A939B207E1F710E061
S11300B0CCE7D0E004C02297FE010E941C04CA379A
S11300C0D107C9F70E94B3000C94EB050C9400000F
S11300D0E0ECF0E0908195FFFDCF8093C600089599
S11300E0CF93C82F8A3019F48DE00E9470008C2FB2
S11300F00E94680080E090E0CF910895E0ECF0E089
S113010020812223ECF72091C600FC01208308956E
S11301100F931F93CF93DF931F92CDB7DEB78C015C
S1130120CE0101960E947E00B80189810E94700070
S1130130898190E00F90DF91CF911F910F910895E5
S113014068E870E080E790E00E94290490938201BF
S1130150809381019093900180938F0190939201F9
S11301608093910108951092C50083E38093C400A5
S113017086E08093C20088E18093C1000E94A000C1
S11301808DE191E00E9474048AE391E00E9474047A
S113019084B5836084BD85B5836085BDEEE6F0E0FB
S11301A0808181608083789480E791E00E94C1031C
S11301B061E080E791E00E946703809180018823D9
S11301C071F06CE071E080E791E00E94850246E006
S11301D051E061E080E791E00E94A0020DC066E07A
S11301E071E080E791E00E9485024CE051E061E01B
S11301F080E791E00E94A00280E791E00E94120350
S113020060E080E791E00E9496012FEF89E698E193
S1130210215080409040E1F700C0000060E080E79A
S113022091E00E9496012FEF89E698E121508040E9
S11302309040E1F700C00000E3CF80E791E00E9426
S1130240590208951F920F920FB60F9211242F9303
S11302508F939F9380918B0190918C010196909341
S11302608C0180938B0180918B0190918C018A3F4A
S113027091050CF443C010928C0110928B01809173
S1130280890190918A01019690938A018093890152
S113029080918501909186010196909386018093C7
S11302A085018091890190918A01893E93402CF1C6
S11302B010928A01109289018091830190918401A6
S11302C0019690938401809383018091870190919A
S11302D0880101969093880180938701809187011A
S11302E090918801883E934044F0109288011092C6
S11302F0870195B181E0892785B900009F918F918D
S11303002F910F900FBE0F901F901895662341F008
S1130310289A87EC90E00197F1F700C00000089557
S113032028989DE19A95F1F700000895FC01208139
S11303308181281799F080918D0190918E01019708
S113034041F45F9A87EC90E00197F1F700C0000058
S113035008955F989DE19A95F1F7000008951F9321
S1130360CF93DF93EC01162F84B18C6284B9249867
S11303708CB580658CBD60E0CE010E9486011F7142
S11303801EBD0DB407FEFDCF8EB58FEF8EBD0DB42F
S113039007FEFDCF1EB561E0CE010E948601812FCC
S11303A0DF91CF911F910895EF92FF920F931F93C6
S11303B0CF93DF93EC01062FE42EF52E122F84B198
S11303C08C6284B924988CB580658CBD60E0CE01C4
S11303D00E9486010F7100620EBD0DB407FEFDCFB1
S11303E00EB59FEF910F112351F0EE2DFF2D2191AA
S11303F02EBD0DB407FEFDCF2EB59150C0F761E0C0
S1130400CE010E948601802FDF91CF911F910F9121
S1130410FF90EF9008950F931F93CF93DF93EC0118
S1130420162F042F84B18C6284B924988CB580650E
S11304308CBD60E0CE010E9486011F7110621EBD5A
S11304400DB407FEFDCF1EB50EBD0DB407FEFDCFE6
S11304508EB561E0CE010E948601812FDF91CF919C
S11304601F910F9108951F93CF93DF93EC01162FE3
S113047084B18C6284B924988CB580658CBD60E0AD
S1130480CE010E9486011EBD0DB407FEFDCF1EB530
S113049061E0CE010E948601812FDF91CF911F91EF
S11304A0089562EE0E943302089561EE0E943302C1
S11304B00895FC01128280E28383148285E082879E
S11304C015820895462F603808F04FE765E00E94D2
S11304D00B020895CF93DF93EC0160E00E94AF011B
S11304E081FD10C060E0CE010E94AF01482F426040
S11304F060E0CE010E940B028FE097E20197F1F7D2
S113050000C00000DF91CF9108950F931F93CF9304
S1130510DF93EC018B012A85AB016AE00E94D401D0
S11305202A85A80160E1CE010E94D4014B8161E1DA
S1130530CE010E940B02DF91CF911F910F9108957C
S1130540FF920F931F93CF93DF93EC01F62E8A0152
S1130550611107C04A8550E0B80105960E94200445
S113056007C066E06F1508F436C071E07F1558F0D7
S1130570EF2DF0E0E259FF4F64912A85A801CE01E6
S11305800E94D40108C0EF2DF0E0E259FF4F6491BE
S113059021E00E94D4010F2D10E0F801E859FF4F2B
S11305A064914B81CE010E940B0262E0CE010E9455
S11305B0AF01F801EC58FF4F449121E030E0B9015C
S11305C002C0660F771F4A95E2F7AB01482B62E041
S11305D0CE010E940B02DF91CF911F910F91FF90EA
S11305E008951F93CF93DF93EC01162F62E00E94CE
S11305F0AF01E12FF0E0EC58FF4FE49121E030E04F
S1130600A90102C0440F551FEA95E2F7FA01E095EB
S11306104E2F482362E0CE010E940B02DF91CF915E
S11306201F910895CF93DF93EC010E946A0260E06A
S1130630CE010E94AF01482F416060E0CE010E94CC
S11306400B0240E767E0CE010E940B0261E0CE019D
S11306500E9496018D81882349F02A85AE014B5F63
S11306605F4F6AE0CE010E94D40104C060E0CE0175
S11306700E94F1026DE1CE010E94AF0181FF03C02F
S1130680CE010E945502DF91CF910895CF93DF935D
S1130690EC0184B18C6284B924988CB580658CBDDE
S11306A060E0CE010E94860180E58EBD0DB407FE98
S11306B0FDCF8EB583E78EBD0DB407FEFDCF8EB59D
S11306C061E0CE010E948601DF91CF9108951F93CE
S11306D0CF93DF93EC01162F66E00E94AF01887F71
S11306E0143020F4412F440F4F5F01C047E0482BE2
S11306F066E0CE010E940B02DF91CF911F91089515
S1130700FF920F931F93CF93DF93EC01162F66E0B4
S11307100E94AF01877DF82E123059F48062F82EC2
S11307200BE910E020E030E00B871C872D873E8723
S113073015C0113049F005E510E020E030E00B87EA
S11307401C872D873E870AC08860F82E01E410E0DC
S113075020E030E00B871C872D873E874F2D66E015
S1130760CE010E940B0266E0CE010E94AF0191E02F
S1130770F81290E0892FDF91CF911F910F91FF9094
S11307800895CF93DF93EC01579A209A84B18C6239
S113079084B924988CB580658CBD61E0CE010E943B
S11307A086018FE097E20197F1F700C000004CE06A
S11307B060E0CE010E940B024FE564E0CE010E948E
S11307C00B0262E0CE010E948003882311F081E0D5
S11307D08A8360E0CE010E948003CE010E9446031A
S11307E040E06DE1CE010E940B0240E06CE1CE01DD
S11307F00E940B0240E767E0CE010E940B026CE40A
S1130800CE010E946202CE010E945102CE010E94DA
S11308105502CE010E946A0260E0CE010E94AF013F
S1130820482F4E7F60E0CE010E940B0280E0DF91F2
S1130830CF910895EE0FFF1F0590F491E02D0994D8
S1130840FB01DC0102C001900D9241505040D8F7E9
S113085008950F931F93CF93DF93EC018B010097BF
S113086031F46115710519F480E090E038C06EE050
S113087070E081E090E00E94A104FC010097A1F3E4
S113088080E883830115110571F01387028781E8DD
S1130890838380918F0190919001892B21F4F093AF
S11308A09001E0938F012097C9F0D187C08783819D
S11308B0826083838091910190919201892B71F4DC
S11308C0F0939201E09391018091930190919401AE
S11308D0892B21F4F0939401E0939301CF01DF91EC
S11308E0CF911F910F9108950F931F93CF93DF938F
S11308F0E0919101F0919201238121FF1BC0EC0151
S113090000E010E089916091910170919201DB0106
S11309101896ED91FC911997882331F00995892B4C
S113092089F30FEF1FEFEECF8AE00995892B11F4BD
S1130930C80102C08FEF9FEFDF91CF911F910F91FC
S113094008950F931F93CF93DF93869F8001879F12
S1130950100D969F100D1124C8010E94BD04EC01D6
S1130960009729F0A80160E070E00E94E405CE0140
S1130970DF91CF911F910F910895CF93DF93823030
S1130980910510F482E090E0E0919701F0919801D4
S113099020E030E0A0E0B0E0309739F140815181AF
S11309A048175907B8F04817590771F482819381A1
S11309B0109729F013969C938E9312972CC09093C2
S11309C098018093970127C02115310531F0421712
S11309D0530718F0A901DB0101C0EF019A01BD0121
S11309E0DF010280F381E02DD7CF21153105F9F025
S11309F0281B390B2430310580F48A819B816115D1
S1130A00710521F0FB019383828304C090939801C4
S1130A1080939701FE01329644C0FE01E20FF31F5A
S1130A208193919322503109398328833AC02091CC
S1130A30950130919601232B41F4209102013091CC
S1130A400301309396012093950120910001309188
S1130A5001012115310541F42DB73EB74091040140
S1130A6050910501241B350BE0919501F0919601FD
S1130A70E217F307A0F42E1B3F0B2817390778F071
S1130A80AC014E5F5F4F2417350748F04E0F5F1FD0
S1130A9050939601409395018193919302C0E0E0B5
S1130AA0F0E0CF01DF91CF910895CF93DF930097CA
S1130AB009F487C0FC01329713821282C091970116
S1130AC0D0919801209781F420813181280F391F1A
S1130AD080919501909196018217930779F5F0938F
S1130AE09601E09395016DC0DE0120E030E0AE1781
S1130AF0BF0750F412964D915C9113979D014115D7
S1130B00510509F1DA01F3CFB383A2834081518106
S1130B10840F951F8A179B0771F48D919C911197EF
S1130B20840F951F02969183808312968D919C91D8
S1130B301397938382832115310529F4F093980147
S1130B40E09397013EC0D9011396FC93EE9312975C
S1130B504D915D91A40FB51FEA17FB0779F48081CD
S1130B609181840F951F0296D90111969C938E93BF
S1130B708281938113969C938E931297E0E0F0E028
S1130B808A819B81009719F0FE01EC01F9CFCE0117
S1130B90029628813981820F931F2091950130910B
S1130BA096012817390769F4309729F410929801AF
S1130BB01092970102C013821282D0939601C093BF
S1130BC09501DF91CF910895DC0101C06D934150EF
S10D0BD05040E0F70895F894FFCFB9
S1130BDA000099012000314E6F646500324E6F6443
S1130BEA650025635B324A0025635B48005246323E
S1130BFA342F6578616D706C65732F4765747469F9
S1130C0A6E6753746172746564002A2A2A205052EA
S1130C1A4553532027542720746F20626567696EF1
S1130C2A207472616E736D697474696E6720746F6F
S1130C3A20746865206F74686572206E6F6465003D
S9030000FC
