S01100006E726632346C3031702E737265632A
S11300000C9434000C9446000C9446000C94460066
S11300100C9446000C9446000C9446000C94460044
S11300200C9446000C9446000C9446000C94460034
S11300300C9446000C9446000C946B000C944600FF
S11300400C9446000C9446000C9446000C94460014
S11300500C9446000C9446000C9446000C94460004
S11300600C9446000C94460011241FBECFEFD8E038
S1130070DEBFCDBF21E0A0E0B1E001C01D92A430FD
S1130080B207E1F70E9448000C94DC010C940000D4
S1130090CF93DF93CDB7DEB760970FB6F894DEBF8A
S11300A00FBECDBF4AE069E0CE0101960E94030174
S11300B0CE0101960E948801FFCF84B18C6284B97D
S11300C024988CB580658CBD08958EBD0DB407FE53
S11300D0FDCF8EB508951F920F920FB60F92112483
S11300E08F939F93809102019091030101969093C5
S11300F003018093020180910201909103018436EF
S1130100910574F010920301109202018091000194
S113011090910101019690930101809300010000E8
S11301209F918F910F900FBE0F901F90189566238B
S113013041F02A9A87EC90E00197F1F700C00000A3
S113014008952A989DE19A95F1F7000008951F9368
S1130150CF93DF93EC01162F0E945D0060E0CE0187
S11301600E949700812F8F710E9465008FEF0E947B
S11301706500182F61E0CE010E949700812FDF9166
S1130180CF911F9108950F931F93CF93DF93EC01A9
S1130190162F042F0E945D0060E0CE010E9497009C
S11301A0812F8F7180620E946500182F802F0E941A
S11301B0650061E0CE010E949700812FDF91CF910D
S11301C01F910F9108951F93CF93DF93EC01162F86
S11301D00E945D0060E0CE010E949700812F0E9482
S11301E06500182F61E0CE010E949700812FDF91F6
S11301F0CF911F91089562EE0E94E300089561EE8D
S11302000E94E3000895FC0160834183128280E22E
S11302108383148285E0828715820895462F60388F
S113022008F04FE765E00E94C3000895CF93DF9381
S1130230EC0160E00E94A70081FD10C060E0CE01E7
S11302400E94A700482F426060E0CE010E94C300D4
S11302508FE097E20197F1F700C00000DF91CF91A2
S11302600895CF93DF93EC010E945D0060E0CE011E
S11302700E94970080E50E94650083E70E94650064
S113028061E0CE010E949700DF91CF910895FF9223
S11302900F931F93CF93DF93EC01162F66E00E9418
S11302A0A700877DF82E123059F48062F82E0BE9EE
S11302B010E020E030E00B871C872D873E8715C0B7
S11302C0113049F005E510E020E030E00B871C8791
S11302D02D873E870AC08860F82E01E410E020E0F4
S11302E030E00B871C872D873E874F2D66E0CE01BB
S11302F00E94C30066E0CE010E94A70091E0F812BC
S113030090E0892FDF91CF911F910F91FF90089575
S1130310CF93DF93EC015F9A289A0E945D0061E01D
S1130320CE010E9497008FE097E20197F1F700C099
S113033000004CE060E0CE010E94C3004FE564E0A1
S1130340CE010E94C30062E0CE010E9447018823CF
S113035011F081E08A8360E0CE010E944701CE0162
S11303600E94310140E06DE1CE010E94C30040E0F3
S11303706CE1CE010E94C30040E767E0CE010E9419
S1130380C3006CE4CE010E940E01CE010E94FB006A
S1130390CE010E94FF00CE010E94160160E0CE0152
S11303A00E94A700482F4E7F60E0CE010E94C30048
S10F03B080E0DF91CF910895F894FFCF16
S9030000FC
