:100000000C9444000C946C000C946C000C946C00E8
:100010000C946C000C946C000C946C000C946C00B0
:100020000C946C000C946C000C946C000C946C00A0
:100030000C946C000C946C000C946C000C946C0090
:100040000C944A020C946C000C946C000C946C00A0
:100050000C946C000C946C000C946C000C946C0070
:100060000C946C000C946C001112131415160A0BEE
:100070000C0D0E0F0001020304056364696E6F70BE
:10008000737578585B00450211241FBECFEFD8E08E
:10009000DEBFCDBF12E0A0E0B1E0EEE9FCE102C0BE
:1000A00005900D92A836B107D9F722E0A8E6B2E094
:1000B00001C01D92A039B207E1F710E0C8E8D0E016
:1000C00004C02297FE010E948506C638D107C9F7F1
:1000D0000E94B9000C944D0E0C940000E0ECF0E08E
:1000E000908195FFFDCF8093C6000895CF93C82FD0
:1000F0008A3019F48DE00E9476008C2F0E946E00E9
:1001000080E090E0CF910895E0ECF0E020812223A0
:10011000ECF72091C600FC01208308950F931F93F4
:10012000CF93DF931F92CDB7DEB78C01CE0101963E
:100130000E948400B80189810E947600898190E044
:100140000F90DF91CF911F910F9108956EE870E0AD
:1001500086E790E00E94920690937B0280937A0259
:1001600090938702809386029093890280938802FD
:100170000895CF93DF93CDB7DEB762970FB6F894AB
:10018000DEBF0FBECDBF1092C50083E38093C400D5
:1001900086E08093C20088E18093C1000E94A6009F
:1001A0008DE191E00E94F1068AE391E00E94F10660
:1001B00084B5836084BD85B5836085BDEEE6F0E0DF
:1001C000808181608083789489E692E00E942A068B
:1001D00061E089E692E00E94D0058091790288234F
:1001E00071F06CE071E089E692E00E94EE0446E076
:1001F00051E061E089E692E00E9409050DC066E0E9
:1002000071E089E692E00E94EE044CE051E061E08A
:1002100089E692E00E94090589E692E00E947B054A
:10022000CE0101969A8B898B0F2EF2E94F2EF1E0C9
:100230005F2EF02D0F2EF1E32F2EF2E03F2EF02D4A
:1002400069887A880F2EF0E4CF2EF2EEDF2EEE24AE
:10025000E394F12CF02D00EC10E0809168028823EB
:1002600009F451C089E692E00E94270480E791E0FA
:100270000E94F106CD86DE86EF86F88A44E0BE0154
:10028000635F7F4F89E692E00E94B704811108C046
:10029000ACE7B1E0BF93AF930E94DD060F900F90E3
:1002A00089E692E00E947B0580907C0290907D021E
:1002B000AA2497FCA094BA2C12C080917C02909141
:1002C0007D02AA2797FDA095BA2F88199909AA0936
:1002D000BB09893C9105A105B10508F082C089E6FA
:1002E00092E00E94DC04882341F380C0FFEF29E6FE
:1002F00088E1F15020408040E1F700C0000080918B
:10030000680281113AC089E692E00E94DC048823E9
:10031000A1F107C044E0662D772D89E692E00E94A6
:10032000E10489E692E00E94DC048111F3CF89E6C2
:1003300092E00E94270444E0662D772D89E692E042
:100340000E94B70489E692E00E947B05A3E8B1E031
:10035000BF93AF930E94DD068C818F938B818F9327
:100360008A818F9389818F935F924F920E94DD06DD
:100370000FB6F894DEBF0FBECDBFD8018C91882395
:100380000CF06BCFBA89BF93E989EF9387E991E0CD
:100390009F938F930E941E070F900F900F900F90C6
:1003A000843561F480916802811155CF8CE991E028
:1003B0000E94F10681E0809368024DCF823509F0FA
:1003C0004ACF80916802882309F445CF86ED91E0F9
:1003D0000E94F1061092680289E692E00E947B0575
:1003E0003ACF8FE092E00E94F10680CF44E0662D84
:1003F000772D89E692E00E94E10480907C02909043
:100400007D02AA2497FCA094BA2CABE2B2E0BF9381
:10041000AF930E94DD06BF92AF929F928F923F9260
:100420002F920E94DD06A5E3B2E0BF93AF930E9436
:10043000DD068C818F938B818F938A818F93898145
:100440008F933F922F920E94DD06A5E4B2E0BF9306
:10045000AF930E94DD0689819A81AB81BC81881AA5
:10046000990AAA0ABB0ABF92AF929F928F923F92BB
:100470002F920E94DD0689E592E00E94F1060FB6F8
:10048000F894DEBF0FBECDBF31CF89E692E00E9467
:10049000160408951F920F920FB60F9211242F93F6
:1004A0008F939F93809184029091850201969093FF
:1004B00085028093840280918402909185028A3F14
:1004C00091050CF443C01092850210928402809131
:1004D000820290918302019690938302809382021C
:1004E00080917E0290917F02019690937F0280938B
:1004F0007E028091820290918302893E93402CF18A
:10050000109283021092820280917C0290917D026F
:10051000019690937D0280937C028091800290915D
:1005200081020196909381028093800280918002E3
:1005300090918102883E934044F010928102109283
:10054000800295B181E0892785B900009F918F9144
:100550002F910F900FBE0F901F901895662341F0BA
:10056000289A87EC90E00197F1F700C00000089509
:1005700028989DE19A95F1F700000895662341F0CF
:100580005F9A87EC90E00197F1F700C000000895B2
:100590005F989DE19A95F1F7000008951F93CF931E
:1005A000DF93EC01162F84B18C6284B924988CB54A
:1005B00080658CBD60E0CE010E94AE021F711EBD41
:1005C0000DB407FEFDCF8EB58FEF8EBD0DB407FEC7
:1005D000FDCF1EB561E0CE010E94AE02812FDF91FA
:1005E000CF911F910895EF92FF920F931F93CF9396
:1005F000DF93EC01062FE42EF52E122F84B18C62CE
:1006000084B924988CB580658CBD60E0CE010E94D1
:10061000AE020F7100620EBD0DB407FEFDCF0EB528
:100620009FEF910F112351F0EE2DFF2D21912EBD43
:100630000DB407FEFDCF2EB59150C0F761E0CE019D
:100640000E94AE02802FDF91CF911F910F91FF90FA
:10065000EF9008950F931F93CF93DF93EC01162F24
:10066000042F84B18C6284B924988CB580658CBDCC
:1006700060E0CE010E94AE021F7110621EBD0DB47B
:1006800007FEFDCF1EB50EBD0DB407FEFDCF8EB526
:1006900061E0CE010E94AE02812FDF91CF911F91C8
:1006A0000F910895DF92EF92FF920F931F93CF93D4
:1006B000DF93EC01D62EE72EF22E0B81142F0417B8
:1006C00008F4102F8C81811102C0011B01C000E0D1
:1006D00084B18C6284B924988CB580658CBD60E04F
:1006E000CE010E94AE02FEBC0DB407FEFDCFFEB4EB
:1006F0009FEF910F112351F0ED2DFE2D21912EBD75
:100700000DB407FEFDCF2EB59150C0F79FEF900FAF
:10071000002339F01EBC0DB407FEFDCF2EB591505D
:10072000C8F761E0CE010E94AE028F2DDF91CF911C
:100730001F910F91FF90EF90DF900895DF92EF925D
:10074000FF920F931F93CF93DF93EC01D62EE72EEA
:100750000B81142F041708F4102F8C81811102C013
:10076000011B01C000E084B18C6284B924988CB56F
:1007700080658CBD60E0CE010E94AE0281E68EBD38
:100780000DB407FEFDCFFEB49FEF910F112359F07A
:10079000ED2DFE2D3FEF3EBD0DB407FEFDCF2EB576
:1007A00021939150C0F79FEF900F002341F02FEF5E
:1007B0002EBD0DB407FEFDCF3EB59150C8F761E0E8
:1007C000CE010E94AE028F2DDF91CF911F910F912C
:1007D000FF90EF90DF9008951F93CF93DF93EC018C
:1007E000162F84B18C6284B924988CB580658CBD39
:1007F00060E0CE010E94AE021EBD0DB407FEFDCF2B
:100800001EB561E0CE010E94AE02812FDF91CF9133
:100810001F91089562EE0E94EC03089561EE0E941C
:10082000EC0308956FEF0E94EC030895FC0112821F
:1008300080E28383148285E0828715820895462FA3
:10084000603808F04FE765E00E942A030895CF93CF
:10085000DF93EC0160E00E94BE028FE891E0019717
:10086000F1F700C000006DE1CE010E94CE0281FFD1
:1008700009C08FE891E00197F1F700C00000CE01B8
:100880000E940E0460E0CE010E94CE02482F4E7FEF
:1008900060E0CE010E942A0362E0CE010E94CE02F7
:1008A000E4E7F0E0E49121E030E0A90102C0440F68
:1008B000551FEA95E2F7FA01482F4E2B62E0CE0170
:1008C0000E942A03DF91CF910895CF93DF93EC012B
:1008D00060E00E94CE0281FD10C060E0CE010E9467
:1008E000CE02482F426060E0CE010E942A038FE0D2
:1008F00097E20197F1F700C00000DF91CF910895D2
:100900000F93CF93DF93EC01222311F020EB01C072
:1009100020EACE010E945203002321F061E0CE01C3
:100920000E94BE02DF91CF910F9108950F93CF9354
:10093000DF93EC0101E00E948004CE010E941204CA
:100940008073D9F360E0CE010E94BE0240E767E009
:10095000CE010E942A0384FF05C0CE010E940E042E
:1009600080E001C081E0DF91CF910F91089520E0F8
:100970000E94960408950F931F93CF93DF93EC0189
:100980008B0167E10E94CE0280FD0EC001151105AA
:1009900069F0CE010E94120490E0959587958770CA
:1009A000F801808381E003C080E001C081E0DF9135
:1009B000CF911F910F91089560E070E00E94BB04F9
:1009C0000895CF93DF93EC010E949E0340E767E018
:1009D000CE010E942A03DF91CF9108950F931F93B8
:1009E000CF93DF93EC018B012A85AB016AE00E9473
:1009F000F3022A85A80160E1CE010E94F3024B8137
:100A000061E1CE010E942A03DF91CF911F910F91E6
:100A10000895FF920F931F93CF93DF93EC01F62E6F
:100A20008A01611107C04A8550E0B80105960E940D
:100A3000890607C066E06F1508F436C071E07F15BF
:100A400058F0EF2DF0E0E259FF4F64912A85A8019C
:100A5000CE010E94F30208C0EF2DF0E0E259FF4FF3
:100A6000649121E00E94F3020F2D10E0F801E85993
:100A7000FF4F64914B81CE010E942A0362E0CE01B8
:100A80000E94CE02F801EC58FF4F449121E030E083
:100A9000B90102C0660F771F4A95E2F7AB01482BF8
:100AA00062E0CE010E942A03DF91CF911F910F9146
:100AB000FF9008951F93CF93DF93EC01162F62E010
:100AC0000E94CE02E12FF0E0EC58FF4FE49121E0CC
:100AD00030E0A90102C0440F551FEA95E2F7FA0180
:100AE000E0954E2F482362E0CE010E942A03DF9159
:100AF000CF911F910895CF93DF93EC010E9465047D
:100B000060E0CE010E94CE02482F416060E0CE013D
:100B10000E942A0340E767E0CE010E942A0361E0B9
:100B2000CE010E94BE028D81882349F02A85AE0144
:100B30004B5F5F4F6AE0CE010E94F30204C060E0A9
:100B4000CE010E945A056DE1CE010E94CE0281FFC6
:100B500003C0CE010E940E04DF91CF910895CF9380
:100B6000DF93EC0184B18C6284B924988CB58065E4
:100B70008CBD60E0CE010E94AE0280E58EBD0DB45A
:100B800007FEFDCF8EB583E78EBD0DB407FEFDCF0A
:100B90008EB561E0CE010E94AE02DF91CF91089543
:100BA0001F93CF93DF93EC01162F66E00E94CE02D5
:100BB000887F143020F4412F440F4F5F01C047E07D
:100BC000482B66E0CE010E942A03DF91CF911F914E
:100BD0000895FF920F931F93CF93DF93EC01162F8D
:100BE00066E00E94CE02877DF82E123059F48062B2
:100BF000F82E0BE910E020E030E00B871C872D87F2
:100C00003E8715C0113049F005E510E020E030E0E6
:100C10000B871C872D873E870AC08860F82E01E469
:100C200010E020E030E00B871C872D873E874F2D9A
:100C300066E0CE010E942A0366E0CE010E94CE0249
:100C400091E0F81290E0892FDF91CF911F910F91E1
:100C5000FF900895CF93DF93EC01579A209A84B1C7
:100C60008C6284B924988CB580658CBD61E0CE011E
:100C70000E94AE028FE097E20197F1F700C00000FA
:100C80004CE060E0CE010E942A034FE564E0CE0113
:100C90000E942A0362E0CE010E94E905882311F038
:100CA00081E08A8360E0CE010E94E905CE010E94C6
:100CB000AF0540E06DE1CE010E942A0340E06CE107
:100CC000CE010E942A0340E767E0CE010E942A037A
:100CD0006CE4CE010E941F04CE010E940A04CE01E2
:100CE0000E940E04CE010E94650460E0CE010E94C5
:100CF000CE02482F4E7F60E0CE010E942A0380E0A2
:100D0000DF91CF910895EE0FFF1F0590F491E02D34
:100D10000994FB01DC0102C001900D92415050404A
:100D2000D8F708950F931F93CF93DF93EC018B01B6
:100D3000009731F46115710519F480E090E038C036
:100D40006EE070E081E090E00E94B90BFC0100973A
:100D5000A1F380E883830115110571F013870287E1
:100D600081E883838091860290918702892B21F408
:100D7000F0938702E09386022097C9F0D187C0875D
:100D80008381826083838091880290918902892B7C
:100D900071F4F0938902E093880280918A02909125
:100DA0008B02892B21F4F0938B02E0938A02CF010E
:100DB000DF91CF911F910F910895A0E0B0E0E3EE95
:100DC000F6E00C94260EFE01359661917191AF010B
:100DD00080918802909189020E943207E2E00C948F
:100DE000420E0F931F93CF93DF93E0918802F0910F
:100DF0008902238121FF1BC0EC0100E010E08991F2
:100E00006091880270918902DB011896ED91FC9146
:100E10001997882331F00995892B89F30FEF1FEF7C
:100E2000EECF8AE00995892B11F4C80102C08FEF3B
:100E30009FEFDF91CF911F910F910895A0E0B0E057
:100E4000E4E2F7E00C94260EFE0135966191719173
:100E5000AF0180918602909187020E94820AE2E0AF
:100E60000C94420EACE0B0E0E8E3F7E00C94160E10
:100E70007C016B018A01FC0117821682838181FF4C
:100E8000BDC1CE0101964C01F7019381F60193FD9E
:100E9000859193FF81916F01882309F4ABC185325D
:100EA00039F493FD859193FF81916F01853229F487
:100EB000B70190E00E946A0DE7CF512C312C20E061
:100EC0002032A0F48B3269F030F4803259F0833252
:100ED00069F420612CC08D3239F0803339F42160FF
:100EE00026C02260246023C0286021C027FD27C0BF
:100EF00030ED380F3A3078F426FF06C0FAE05F9EF6
:100F0000300D1124532E13C08AE0389E300D112469
:100F1000332E20620CC08E3221F426FD6BC120647A
:100F200006C08C3611F4206802C0883641F4F60100
:100F300093FD859193FF81916F018111C1CF982F0E
:100F40009F7D9554933028F40C5F1F4FFFE3F98386
:100F50000DC0833631F0833771F0833509F05BC003
:100F600022C0F801808189830E5F1F4F442443947F
:100F7000512C540115C03801F2E06F0E711CF801BC
:100F8000A080B18026FF03C0652D70E002C06FEF26
:100F90007FEFC5012C870E94210D2C0183012C8538
:100FA0002F77222E17C03801F2E06F0E711CF80166
:100FB000A080B18026FF03C0652D70E002C06FEFF6
:100FC0007FEFC5012C870E940F0D2C012C85206816
:100FD000222E830123FC1BC0832D90E04816590666
:100FE000B0F4B70180E290E00E946A0D3A94F4CF29
:100FF000F50127FC859127FE81915F01B70190E003
:101000000E946A0D31103A94F1E04F1A51084114D0
:10101000510471F7E5C0843611F0893639F5F801CD
:1010200027FF07C060817181828193810C5F1F4F10
:1010300008C060817181882777FD8095982F0E5FA9
:101040001F4F2F76B22E97FF09C09095809570950F
:1010500061957F4F8F4F9F4F2068B22E2AE030E07E
:10106000A4010E94B50DA82EA81844C0853729F404
:101070002F7EB22E2AE030E025C0F22FF97FBF2E5E
:101080008F36C1F018F4883579F0B4C0803719F084
:10109000883721F0AFC02F2F2061B22EB4FE0DC0D3
:1010A0008B2D8460B82E09C024FF0AC09F2F966044
:1010B000B92E06C028E030E005C020E130E002C0D3
:1010C00020E132E0F801B7FE07C0608171818281C2
:1010D00093810C5F1F4F06C06081718180E090E0BA
:1010E0000E5F1F4FA4010E94B50DA82EA818FB2D5E
:1010F000FF77BF2EB6FE0BC02B2D2E7FA51450F40C
:10110000B4FE0AC0B2FC08C02B2D2E7E05C07A2C7E
:101110002B2D03C07A2C01C0752C24FF0DC0FE01BD
:10112000EA0DF11D8081803311F4297E09C022FF70
:1011300006C07394739404C0822F867809F0739468
:1011400023FD13C020FF06C05A2C731418F4530C4F
:101150005718732C731468F4B70180E290E02C8761
:101160000E946A0D73942C85F5CF731410F4371810
:1011700001C0312C24FF12C0B70180E390E02C871E
:101180000E946A0D2C8522FF17C021FF03C088E54D
:1011900090E002C088E790E0B7010CC0822F86780B
:1011A00059F021FD02C080E201C08BE227FD8DE2F3
:1011B000B70190E00E946A0DA51438F4B70180E3EE
:1011C00090E00E946A0D5A94F7CFAA94F401EA0DB8
:1011D000F11D8081B70190E00E946A0DA110F5CF4A
:1011E000332009F451CEB70180E290E00E946A0DED
:1011F0003A94F6CFF7018681978102C08FEF9FEF77
:101200002C96E2E10C94320E20FD09C0FC0123FD76
:1012100005C022FF02C07383628351834083089517
:1012200044FD10C046FD10C0DB01FC01AA0FBB1F2E
:10123000EE1FFF1F1094D1F76A0F7B1F8E1F9F1F99
:1012400031E003C033E001C034E0660F771F881F30
:10125000991F3150D1F7620F711D811D911D0895A5
:101260000F931F93CF93DF938C01C8010E942C0D25
:10127000EC0197FD08C00E94FC0C892BB1F7B80166
:10128000CE010E949C0DCE01DF91CF911F910F9155
:1012900008958F929F92AF92CF92DF92EF92FF923A
:1012A0000F931F93CF93DF93EC01A62E4A01022FD9
:1012B0000E942C0DAC0155274B32510521F04D32C7
:1012C000510551F40068AA9411F480E067C0CE0182
:1012D0000E942C0D97FDF9CF102F1D7F302F3073FA
:1012E00001F58033F1F4FF24FA94FA0C09F442C0BA
:1012F000CE010E942C0D97FD3DC0382F3F7D383523
:1013000051F41264AA94AA94A9F1CE010E942C0D62
:1013100097FF07C02FC006FF02C0126001C0126114
:10132000AF2CC12CD12C760120ED280F283080F075
:1013300014FF04C0BE010E949C0D19C02A3040F069
:1013400016FFF8CF2F7D3FEE320F363098F727503B
:10135000412FC701B6010E9410096B017C01126088
:10136000AA9459F0CE010E942C0D97FFDDCF11FDFC
:1013700004C0ABCFC12CD12C760117FF08C0F0946C
:10138000E094D094C094C11CD11CE11CF11C212F0D
:10139000B701A601C4010E94040981E0DF91CF9149
:1013A0001F910F91FF90EF90DF90CF90AF909F90A3
:1013B0008F900895A1E2B0E0E0EEF9E00C941B0EEE
:1013C0005C017A018E010F5F1F4F680180E2D80136
:1013D0001D928A95E9F7F501738040E050E0812C79
:1013E000B0E0912C81E090E0F90173FCA59173FECF
:1013F000A1918F017A2F9F01A11103C080E090E09D
:101400007DC0AE3519F44115510559F1E92DF0E0D3
:10141000E417F5073CF4AD3569F1AD3219F4BB239F
:1014200019F103C0B11101C08A2EE72FE695E695A8
:10143000E69586010E0F111DF801A72FA7708C01EC
:1014400002C0000F111FAA95E2F7D801B081BA2B94
:10145000B083781559F0781510F47F5FE6CF71509E
:10146000E4CF9924939403C0B1E001C0B0E04F5F92
:101470005F4FBACFBB2319F08E8180628E839110AB
:1014800003C09924939415C0F601CE018196208162
:1014900020952193E817F907D1F7F3CFE114F10470
:1014A00029F0D7018C93F70131967F01615001F14A
:1014B000912CC50169A30E942C0D69A197FD16C04E
:1014C000282F269526952695F601E20FF11D2081FD
:1014D00030E0AC014770552702C0359527954A95F5
:1014E000E2F720FDDBCFB5010E949C0D911086CF65
:1014F000E114F10411F0D7011C92C801A196EDE0AE
:101500000C94370E4F925F927F928F929F92AF9280
:10151000BF92CF92DF92EF92FF920F931F93CF93E0
:10152000DF931F92CDB7DEB78C012B017A01FC014E
:1015300017821682A12CF801D380F201D3FC859189
:10154000D3FE8191382F2F01882309F4FCC090E04D
:1015500039830E94FC0C3981892B21F0C8010E943B
:101560003009E9CF353241F4F201D3FC3591D3FE95
:1015700031912F01353269F4C80139830E942C0D55
:10158000398197FDDEC03817B1F2B8010E949C0D79
:10159000DAC03A3241F4D3FC3591D3FE31912F01B8
:1015A000BB24B39401C0B12C712C20ED230F2A3041
:1015B00090F4FB2DF260BF2E672D70E080E090E08C
:1015C00040E20E941009762EF201D3FC3591D3FE41
:1015D00031912F01EACFB1FE03C0711003C0B3C037
:1015E00077247A94383619F03C3661F014C0F20151
:1015F000D3FC3591D3FE31912F01383661F4FB2DA8
:10160000F860BF2E8B2D8460B82EF201D3FC35918B
:10161000D3FE31912F01332309F495C0632F70E07D
:101620008AE790E039830E94040D3981892B09F4FF
:101630008AC0B0FC07C0F701C080D180C701029604
:101640007C0102C0C12CD12C3E3651F4F8014681F8
:10165000578160E070E02B2DC6010E9404096BCF1A
:101660003336A1F4B1FC02C077247394C8010E9400
:101670002C0D97FD66C0C114D10429F0F6018083BA
:10168000C60101966C017A9489F757C03B3559F42D
:101690009201A601672DC8010E94DA092C0100976A
:1016A00009F04BC045C0C80139830E943009398117
:1016B00097FD47C03F3669F128F4343631F13936A9
:1016C00079F12BC0333769F03537F9F026C0C114F2
:1016D000D10429F0F6018082C60101966C017A944A
:1016E00071F0C8010E942C0D4C0197FD08C00E94AA
:1016F000FC0C892B61F3B801C4010E949C0DC1143C
:10170000D104D9F0F601108218C0FB2DF062BF2E73
:1017100007C08B2D8061B82E03C09B2D9064B92E1D
:101720002B2DA601672DC8010E944909811105C012
:10173000F8018381807329F406C0B0FCFCCEA39429
:10174000FACEAA2019F08A2D90E002C08FEF9FEF09
:101750000F90DF91CF911F910F91FF90EF90DF904D
:10176000CF90BF90AF909F908F907F905F904F9061
:1017700008950F931F93CF93DF93869F8001879FD8
:10178000100D969F100D1124C8010E94D50BEC017D
:10179000009729F0A80160E070E00E941A0DCE01C8
:1017A000DF91CF911F910F910895CF93DF938230F6
:1017B000910510F482E090E0E0918E02F0918F02AA
:1017C00020E030E0A0E0B0E0309739F14081518175
:1017D00048175907B8F04817590771F48281938167
:1017E000109729F013969C938E9312972CC0909388
:1017F0008F0280938E0227C02115310531F04217E8
:10180000530718F0A901DB0101C0EF019A01BD01E6
:10181000DF010280F381E02DD7CF21153105F9F0EA
:10182000281B390B2430310580F48A819B81611596
:10183000710521F0FB019383828304C090938F0292
:1018400080938E02FE01329644C0FE01E20FF31F28
:101850008193919322503109398328833AC0209192
:101860008C0230918D02232B41F4209102013091A2
:10187000030130938D0220938C022091000130915E
:1018800001012115310541F42DB73EB74091040106
:1018900050910501241B350BE0918C02F0918D02D3
:1018A000E217F307A0F42E1B3F0B2817390778F037
:1018B000AC014E5F5F4F2417350748F04E0F5F1F96
:1018C00050938D0240938C028193919302C0E0E08B
:1018D000F0E0CF01DF91CF910895CF93DF93009790
:1018E00009F487C0FC01329713821282C0918E02E4
:1018F000D0918F02209781F420813181280F391FE8
:1019000080918C0290918D028217930779F5F09364
:101910008D02E0938C026DC0DE0120E030E0AE1756
:10192000BF0750F412964D915C9113979D0141159C
:10193000510509F1DA01F3CFB383A28340815181CC
:10194000840F951F8A179B0771F48D919C911197B5
:10195000840F951F02969183808312968D919C919E
:101960001397938382832115310529F4F0938F0215
:10197000E0938E023EC0D9011396FC93EE9312972A
:101980004D915D91A40FB51FEA17FB0779F4808193
:101990009181840F951F0296D90111969C938E9385
:1019A0008281938113969C938E931297E0E0F0E0EE
:1019B0008A819B81009719F0FE01EC01F9CFCE01DD
:1019C000029628813981820F931F20918C023091D9
:1019D0008D022817390769F4309729F410928F0285
:1019E00010928E0202C013821282D0938D02C09395
:1019F0008C02DF91CF910895911115C1803219F0B9
:101A000089508550D0F70895FC010590061621F005
:101A10000020D9F7C00108953197CF010895FC0146
:101A20000590615070400110D8F7809590958E0F09
:101A30009F1F0895DC0101C06D9341505040E0F7B5
:101A40000895FC016150704001900110D8F7809515
:101A500090958E0F9F1F0895CF93DF93EC012B81FC
:101A600020FF33C026FF0AC02F7B2B838E819F81EE
:101A700001969F838E838A8190E029C022FF0FC048
:101A8000E881F9818081992787FD9095009719F465
:101A900020622B831AC03196F983E8830EC0EA8551
:101AA000FB85099597FF09C02B81019611F480E110
:101AB00001C080E2822B8B8308C02E813F812F5F83
:101AC0003F4F3F832E83992702C08FEF9FEFDF9117
:101AD000CF9108950F931F93CF93DF93182F092F62
:101AE000EB018B8181FD03C08FEF9FEF20C082FF50
:101AF00010C04E815F812C813D81421753077CF4D9
:101B0000E881F9819F012F5F3F4F3983288310833C
:101B100006C0E885F985812F0995892B29F72E8143
:101B20003F812F5F3F4F3F832E83812F902FDF9187
:101B3000CF911F910F910895FB01238120FF12C0C7
:101B400026FD10C08F3F3FEF930761F082832F7D0A
:101B500020642383268137812150310937832683EE
:101B6000992708958FEF9FEF0895FA01AA2728304B
:101B700051F1203181F1E8946F936E7F6E5F7F4F5A
:101B80008F4F9F4FAF4FB1E03ED0B4E03CD0670FD6
:101B9000781F891F9A1FA11D680F791F8A1F911D29
:101BA000A11D6A0F711D811D911DA11D20D009F479
:101BB00068943F912AE0269F11243019305D3193BB
:101BC000DEF6CF010895462F4770405D4193B3E0A4
:101BD0000FD0C9F7F6CF462F4F70405D4A3318F04B
:101BE000495D31FD4052419302D0A9F7EACFB4E0FC
:101BF000A6959795879577956795BA95C9F70097B4
:101C00006105710508959B01AC010A2E0694579554
:101C1000479537952795BA95C9F7620F731F841FAB
:101C2000951FA01D08959927882708952F923F9208
:101C30004F925F926F927F928F929F92AF92BF92DC
:101C4000CF92DF92EF92FF920F931F93CF93DF9388
:101C5000CDB7DEB7CA1BDB0B0FB6F894DEBF0FBEE5
:101C6000CDBF09942A88398848885F846E847D8432
:101C70008C849B84AA84B984C884DF80EE80FD8034
:101C80000C811B81AA81B981CE0FD11D0FB6F894AA
:0E1C9000DEBF0FBECDBFED010895F894FFCF6B
:101C9E00000090022000314E6F646500324E6F647A
:101CAE00650025635B324A0025635B48005246326D
:101CBE00342F6578616D706C65732F476574746928
:101CCE006E6753746172746564002A2A2A2050521A
:101CDE004553532027542720746F20626567696E21
:101CEE00207472616E736D697474696E6720746F9F
:101CFE0020746865206F74686572206E6F6465006D
:101D0E004E6F772073656E64696E67006661696CED
:101D1E0065640053656E7420726573706F6E7365C3
:101D2E002000256C640A0025313273002A2A2A20ED
:101D3E004348414E47494E4720544F205452414E3E
:101D4E00534D495420524F4C45202D2D2050524575
:101D5E0053532027522720544F205357495443485A
:101D6E00204241434B002A2A2A204348414E4749EC
:101D7E004E4720544F205245434549564520524F19
:101D8E004C45202D2D2050524553532027542720AB
:101D9E00544F20535749544348204241434B004629
:101DAE0061696C65642C20726573706F6E7365204B
:101DBE0074696D6564206F75742E0053656E7420A2
:101DCE0000256C64002C20476F7420726573706F51
:101DDE006E736520002C20526F756E642D747269BF
:101DEE00702064656C61792000206D6963726F7379
:081DFE0065636F6E6473000061
:00000001FF
