:100000000C9434000C9451000C9451000C94510049
:100010000C9451000C9451000C9451000C9451001C
:100020000C9451000C9451000C9451000C9451000C
:100030000C9451000C9451000C94CC000C94510081
:100040000C9451000C9451000C9451000C945100EC
:100050000C9451000C9451000C9451000C945100DC
:100060000C9451000C94510011241FBECFEFD8E026
:10007000DEBFCDBF21E0A6E0B1E001C01D92A631F8
:10008000B207E1F711E0A0E0B1E0E4EAF7E002C076
:1000900005900D92A630B107D9F70E949E000C94EE
:1000A000D0030C940000E0ECF0E0908195FFFDCFD0
:1000B0008093C6000895CF93C82F8A3019F48DE03D
:1000C0000E945B008C2F0E94530080E090E0CF9153
:1000D0000895E0ECF0E020812223ECF72091C600A7
:1000E000FC01208308950F931F93CF93DF931F92FA
:1000F000CDB7DEB78C01CE0101960E946900B80130
:1001000089810E945B00898190E00F90DF91CF91FF
:100110001F910F91089563E770E08BE590E00E94D6
:100120003B02909307018093060190930D01809309
:100130000C0190930F0180930E010895CF93DF93EC
:10014000CDB7DEB760970FB6F894DEBF0FBECDBF58
:100150001092C50083E38093C40086E08093C200C0
:1001600088E18093C1000E948B00CE0101960E941D
:100170006401CE0101960E94E701FFCF84B18C6239
:1001800084B924988CB580658CBD08958EBD0DB45E
:1001900007FEFDCF8EB508951F920F920FB60F92F6
:1001A00011248F939F9380910A0190910B010196E6
:1001B00090930B0180930A0180910A0190910B01A9
:1001C0008436910574F010920B0110920A0180910F
:1001D000080190910901019690930901809308010B
:1001E00000009F918F910F900FBE0F901F90189558
:1001F000662341F02A9A87EC90E00197F1F700C05E
:10020000000008952A989DE19A95F1F7000008955D
:100210001F93CF93DF93EC01162F0E94BE0060E086
:10022000CE010E94F800812F8F710E94C6008FEFCF
:100230000E94C600182F61E0CE010E94F800812FB5
:10024000DF91CF911F9108950F931F93CF93DF9369
:10025000EC01162F042F0E94BE0060E0CE010E9428
:10026000F800812F8F7180620E94C600182F802FA6
:100270000E94C60061E0CE010E94F800812FDF914C
:10028000CF911F910F9108951F93CF93DF93EC01AE
:10029000162F0E94BE0060E0CE010E94F800812F60
:1002A0000E94C600182F61E0CE010E94F800812F45
:1002B000DF91CF911F91089562EE0E94440108954D
:1002C00061EE0E9444010895FC01128280E2838362
:1002D000148285E0828715820895462F603808F0E1
:1002E0004FE765E00E9424010895CF93DF93EC016E
:1002F00060E00E94080181FD10C060E0CE010E9414
:100300000801482F426060E0CE010E9424018FE086
:1003100097E20197F1F700C00000DF91CF910895B7
:10032000CF93DF93EC010E94BE0060E0CE010E94FB
:10033000F80080E50E94C60083E70E94C60061E0E5
:10034000CE010E94F800DF91CF910895FF920F93A4
:100350001F93CF93DF93EC01162F66E00E940801F4
:10036000877DF82E123059F48062F82E0BE910E0E8
:1003700020E030E00B871C872D873E8715C01130A9
:1003800049F005E510E020E030E00B871C872D8761
:100390003E870AC08860F82E01E410E020E030E0DB
:1003A0000B871C872D873E874F2D66E0CE010E946C
:1003B000240166E0CE010E94080191E0F81290E06D
:1003C000892FDF91CF911F910F91FF900895CF93C7
:1003D000DF93EC015F9A289A0E94BE0061E0CE0193
:1003E0000E94F8008FE097E20197F1F700C000004B
:1003F0004CE060E0CE010E9424014FE564E0CE01B4
:100400000E94240162E0CE010E94A601882311F01F
:1004100081E08A8360E0CE010E94A601CE010E94A5
:10042000900140E06DE1CE010E94240140E06CE1CA
:10043000CE010E94240140E767E0CE010E94240122
:100440006CE4CE010E946D01CE010E945C01CE01E0
:100450000E946001CE010E94750160E0CE010E9401
:100460000801482F4E7F60E0CE010E94240180E009
:10047000DF91CF9108950F931F93CF93DF93EC01FA
:100480008B01009731F46115710519F480E090E05B
:1004900038C06EE070E081E090E00E948602FC01CE
:1004A0000097A1F380E883830115110571F013878C
:1004B000028781E8838380910C0190910D01892B43
:1004C00021F4F0930D01E0930C012097C9F0D1873E
:1004D000C08783818260838380910E0190910F0198
:1004E000892B71F4F0930F01E0930E0180911001BC
:1004F00090911101892B21F4F0931101E0931001E7
:10050000CF01DF91CF911F910F9108950F931F930A
:10051000CF93DF93869F8001879F100D969F100DCC
:100520001124C8010E94A202EC01009729F0A80141
:1005300060E070E00E94C903CE01DF91CF911F916E
:100540000F910895CF93DF938230910510F482E0EC
:1005500090E0E0911401F091150120E030E0A0E07E
:10056000B0E0309739F14081518148175907B8F010
:100570004817590771F482819381109729F01396D7
:100580009C938E9312972CC0909315018093140125
:1005900027C02115310531F04217530718F0A90182
:1005A000DB0101C0EF019A01BD01DF010280F3818F
:1005B000E02DD7CF21153105F9F0281B390B243058
:1005C000310580F48A819B816115710521F0FB0161
:1005D0009383828304C09093150180931401FE01DC
:1005E000329644C0FE01E20FF31F81939193225093
:1005F0003109398328833AC02091120130911301C7
:10060000232B41F420910201309103013093130117
:100610002093120120910001309101012115310533
:1006200041F42DB73EB74091040150910501241BC0
:10063000350BE0911201F0911301E217F307A0F4DA
:100640002E1B3F0B2817390778F0AC014E5F5F4F28
:100650002417350748F04E0F5F1F50931301409346
:1006600012018193919302C0E0E0F0E0CF01DF91AD
:10067000CF910895CF93DF93009709F487C0FC01D1
:10068000329713821282C0911401D09115012097E4
:1006900081F420813181280F391F809112019091BE
:1006A00013018217930779F5F0931301E093120178
:1006B0006DC0DE0120E030E0AE17BF0750F41296A7
:1006C0004D915C9113979D014115510509F1DA0196
:1006D000F3CFB383A28340815181840F951F8A1782
:1006E0009B0771F48D919C911197840F951F029631
:1006F0009183808312968D919C911397938382832B
:100700002115310529F4F0931501E09314013EC041
:10071000D9011396FC93EE9312974D915D91A40F1E
:10072000B51FEA17FB0779F480819181840F951F2B
:100730000296D90111969C938E9382819381139690
:100740009C938E931297E0E0F0E08A819B81009762
:1007500019F0FE01EC01F9CFCE0102962881398112
:10076000820F931F2091120130911301281739072E
:1007700069F4309729F4109215011092140102C007
:1007800013821282D0931301C0931201DF91CF9193
:100790000895DC0101C06D9341505040E0F7089589
:0407A000F894FFCFFB
:0607A40000001601200018
:00000001FF
